:10000000020D6C1099028002C22132020C82EF3084
:09001000E6032409FF53070F2247
:06001B00020CA0AF9922C7
:1000230002006E758407758508E4F591F5A4F5B1B2
:10003300D280D281D282D2A5D2A7C2A4A202920B2D
:10004300C283D20EC20FC20CC20DF589538FEE4389
:100053008911F526F528F58CF58A85268D85288B5B
:1000630053B87FD2ABD2A922020003C0E0C0F0C0D4
:1000730083C08263A201C083C082C0D075D00075E3
:100083000800750900C218109802E13785990AE53E
:100093000A20E70241ACC394F0504330050AE50A55
:1000A30054F0240FF51A8016E50A540FFF640E600E
:1000B30003BF0F05850A1A8005751A00E135E51A95
:1000C30054F02470600E24E0600A24F0600B244096
:1000D3006002E135751B02E135751B01E135E50A67
:1000E3002410B410004002E1359000F625E05002E0
:1000F3000583732116E135211B2123E135E135E128
:1001030035E135212BE135416241A3419FE135E1E1
:100113003541A7752B00E135850A1A751B02E135B8
:10012300850A1A751B01E1350531E5317002053089
:10013300300318E52F452E700A120800A2A5B392CA
:10014300A58008E52F152F7002152EE5374536706B
:100153000221D7C374FF9517FF74FF9516FEAD37C1
:10016300EFA805088005CEC313CE13D8F9F50C8E7E
:100173000BC3740B9537FFE49536FEC3E50C9FE57F
:100183000B9E500CC3740B9537F50CE49536F50BA9
:10019300301F21E517250CFFE516350BFED3EF9431
:1001A300FFEE94FF5025E50C2517F517E50B3516E3
:1001B300F5168017D3E517950CE516950B400CE55E
:1001C30017950CF517E516950BF516E516F526AFFD
:1001D30017EFF528E53945387002E135C374FF950B
:1001E30019FF74FF9518FEAD39EFA805088005CEF9
:1001F300C313CE13D8F9F50C8E0BC3740B9539FFCB
:10020300E49538FEC3E50C9FE50B9E500CC3740BBD
:100213009539F50CE49538F50B302021E519250CBB
:10022300FFE518350BFED3EF94FFEE94FF5025E561
:100233000C2519F519E50B3518F5188017D3E519B1
:10024300950CE518950B400CE519950CF519E51877
:10025300950BF518E518F525AF19EFF527E1357579
:100263003000753100752E00752F0075320075331F
:1002730000AB3CAA3DA93EAE32AF338F828E83746E
:1002830003120D35120CFDF53585F03475420075FA
:100293003B00753A00D203120800E135C203E13591
:1002A300D203E13543A208E135E51A120D46042ACB
:1002B3008E042C8F044A9E044C9F0641BE0643BF06
:1002C30002D0F002F9F202EEF300000732AF2BC3C3
:1002D300748094824002E132AF2B052B74002FF51A
:1002E30082E43400F583E50AF0E132850A40753093
:1002F30000753100E132E51BB40209AF0A751E0037
:100303008F1FE132A2039219C203E50A600F75F051
:1003130080A4AEF0251FF51FEE351EF51ED3E53183
:10032300951FE530951E5006E51F451E7036753046
:1003330000753100752E00752F007532007533007E
:10034300AB3CAA3DA93EAE32AF338F828E8374039A
:10035300120D35120CFDF53585F034754200753BF1
:1003630000753A00E53145307011120800E52F257C
:1003730009F509E52E3508F508D218300602811F64
:10038300E531651F7004E530651E7002811F05317C
:10039300E53170020530E52F152F7002152E14AECE
:1003A3002E4E70D71208002006D1E531252FFFE528
:1003B30030352EFEC3EF951FEE951E50BEE52F255B
:1003C30009F509E52E3508F508E52F2531F531E561
:1003D3002E3530F530120800E53AB403CA2018046C
:1003E300D2188030E5312509FFE5303508FEC3EF2B
:1003F300951FEE951E5014E5426010E5092531F571
:1004030031E5083530F530154280D9753B00753A32
:1004130000120800750800750900808B300602E1A0
:1004230032A2199203E132D222E51B64027002E187
:1004330032C2A5300506C201C200E132202204C245
:1004430001E132C200E132D222E51B64026002A163
:10045300EAF50BF50CC219850A1DE50A120D4604CF
:10046300BA0004C00104F80205280305600404C8A7
:100473000504D20604DC0704E60804F00905C76D89
:1004830004C66E04D06F04DA7004E47104EE7205DE
:1004930020730558740518750550760510770548BF
:1004A3007805087905407A05007B05387C05C77D0A
:1004B30005C77E00000571C2A5D21EA1C7D2A5C281
:1004C3001EA1C7D219750B00750C0AA1C7D21975E5
:1004D3000B00750C09A1C7D219750B00750C08A187
:1004E300C7D219750B00750C07A1C7D219750B007C
:1004F300750C06A1C7750B00750C00A1C7052AE58D
:100503002A70020529052AE52A70020529052AE52C
:100513002A70020529052AE52A70020529052AE51C
:100523002A70020529052AE52A70020529FFAE294A
:10053300120C51A1C7E52A152A70021529E52A15BF
:100543002A70021529E52A152A70021529E52A15AC
:100553002A70021529E52A152A70021529E52A159C
:100563002A7002152914FFAE29120C51805674F615
:10057300250AF50A30051C25E024AEF582E4341281
:10058300F583E493F518740193F519851816851905
:10059300178031202218E50A25E024AEF582E434E1
:1005A30012F583E493F518740193F5198016E50A9F
:1005B30025E024AEF582E43412F583E493F5167452
:1005C3000193F517E50C450B7002E13220220C85EF
:1005D3000B38850C39A2199220E132850B36850C34
:1005E30037A219921FE132E51DC3940A5002E1328A
:1005F300E51D946D4002E132E50A6037D2A530056E
:1006030015D200D201E518F525AF19EFF527852599
:1006130026852728E13220220DD201E518F525AFE2
:1006230019EFF527E132D200E516F526AF17EFF5FE
:1006330028E132202204C201E132C200E132D22297
:10064300E51BB40205850A1CE132E51C120D4606C2
:10065300711006B43006DC5006EF7806F57A07030E
:100663007B07097C070D7D07117E00000732E52A11
:100673002444FFE52934FDFEEF7802CEC313CE13E5
:10068300D8F9650A7001EE7002E132532A03752925
:1006930000E50A75F004A424BCFFE5F03402FEEF84
:1006A300252AF52AEE3529F529AF2AFE120C5180A9
:1006B3007EE50AC4135407FF7E00E52A54036F70D6
:1006C30001E4606B532AFCEF252AF52AEE3529F560
:1006D30029AF2AFE120C518056E50AC39440400606
:1006E300D2A5C21E8049C2A5D21E8043C200C20148
:1006F300803DE50A547F6004D2048033C204802F16
:10070300C201C2008029C2058025D2058021C2030F
:10071300E50AC3940E4016D28E752610E50A940F8F
:100723004007D28C7525108006C28C8002C28E636E
:100733001B03C222D0D0D082D08363A201D082D047
:1007430083D0F0D0E032AE07EF7804A2E713D8FBF2
:10075300FF53070FC3EF6480948A400474072FFF8D
:1007630074302FFF120CB6AF0653070FC3EF64802C
:10077300948A400474072FFF74302FFF120CB622A3
:100783007F017E00A201921DC201C2A7C2A3C2A41F
:10079300D2A4EF4E6019E5215EFCE5225F4C24FFF5
:1007A30092A2D2A3C2A3EF25E0FFEE33FE80E3C201
:1007B300A4A21D9201225387BF75985053877F755A
:1007C300BAA0E4F5BD75BE30F5BF75BD035391FE08
:1007D3004392014391025392FDC22153B8EF53B7A1
:1007E300EFD2AC53F8BF53F7BFD2EE22EF1F700125
:0607F3001E144E70F722F7
:10080000E4F50FF510C21AC21BE53AC3953B407CD4
:10081000753A01AF421542EF70720533E53370024D
:100820000532AE32B53527EEB53423C203E4F530D8
:10083000F531C2A5C200C201E53524FFF533E53428
:1008400034FFF532E4F542853B3AD206803EAB3CBC
:10085000AA3DA93EAE32AF338F828E837403120D50
:1008600035120CFD85F02CF52DAE32AF337C007DBA
:1008700003120CEBE92FF9EA3EFA900002120CBECB
:10088000F542852D82852C83E493F53BAF3A053AFA
:10089000E52D2FF582E4352CF583E493752E00F5D4
:1008A0002FAF3A053AE52D2FF582E4352CF583E498
:1008B00093F50D200302414930E702D21B530D7F0F
:1008C000E50D120D46092000092601095E02098D79
:1008D0000309C504092E05093806094207094C0811
:1008E0000956090A226D092C6E09366F09407009F4
:1008F0004A7109547209857309BD74097D7509B57A
:100900007609757709AD78096D7909A57A09657B4E
:10091000099D7C0A227D0A227E09D67F000009E11A
:10092000C2A5D21E4122D2A5C21E4122D21A750FE3
:100930000075100A4122D21A750F00751009412264
:10094000D21A750F007510084122D21A750F007562
:1009500010074122D21A750F007510064122E4F5E6
:100960000FF5104122052AE52A70020529052AE51E
:100970002A70020529052AE52A70020529052AE5BB
:100980002A70020529052AE52A70020529052AE5AB
:100990002A70020529FFAE29120C514122E52A15C1
:1009A0002A70021529E52A152A70021529E52A154B
:1009B0002A70021529E52A152A70021529E52A153B
:1009C0002A70021529E52A152A7002152914FFAE8E
:1009D00029120C51804C301B04C2018045C200809A
:1009E0004174F6250DF50D301B1CD20125E024AE17
:1009F000F582E43412F583E493FC740193FDECF585
:100A000025EDF527801CD200E50D25E024AEF5820A
:100A1000E43412F583E493FC740193FDECF526EDC8
:100A2000F528E510450F6019301B0C850F3885102F
:100A300039A21A9220800A850F36851037A21A92A1
:100A40001FE52F452E7002010922E4F5131200263E
:100A5000C2A7AF2AAE29120C511207B9AF40EF75E9
:100A6000F003A4249FF582E43412F583E493FB742D
:100A70000193FA7402938B3C8A3DF53EF9AE32AF96
:100A8000338F828E837403120D35120CFDF535857C
:100A9000F034D2AFD2047FE87EFD1207EF7FE87E0C
:100AA000FD1207EFD28ED28CAF40EF75F003A42475
:100AB0009FF582E43412F583E493FB740193FA7496
:100AC0000293F9EB8A838982AB3CAA3DA93E653C3F
:100AD000700AE53E65827004E53D6583604AAF407B
:100AE000EF75F003A4249FF582E43412F583E493B8
:100AF000FB740193FA7402938B3C8A3DF53EE4F556
:100B000030F531F532F533F52EF52FAB3CAA3DA982
:100B10003EAE32AF338F828E837403120D35120CCA
:100B2000FDF53585F0348080208019A2A7B392A707
:100B300030A706D21EC2A5800BC21ED2A5AF2AAE18
:100B400029120C5174FFFFFE1207EF20A50241A8E5
:100B5000208123C2A574FFFFFE1207EF052AE52AB4
:100B600070020529AF2AAE29120C51D2A574FFFFDD
:100B7000FE1207EF8024208221C2A574FFFFFE121F
:100B800007EFE52A152A70021529AF2AAE29120CA3
:100B900051D2A574FFFFFE1207EFC3E52A94BCE50E
:100BA000299402504E752902752ABCC2A574FFFF14
:100BB000FE1207EFD2A574FFFFFE1207EFC2A57465
:100BC000FFFFFE1207EFD2A574FFFFFE1207EFC270
:100BD000A574FFFFFE1207EFD2A574FFFFFE1207F8
:100BE000EFC2A574FFFFFE1207EFD2A574FFFFFE50
:100BF0001207EFD3E52A94B0E5299404500241A8E6
:100C0000752904752AB0C2A574FFFFFE1207EFD242
:100C1000A574FFFFFE1207EFC2A574FFFFFE1207C7
:100C2000EFD2A574FFFFFE1207EFC2A574FFFFFE0F
:100C30001207EFD2A574FFFFFE1207EFC2A574FFE3
:100C4000FFFE1207EFD2A574FFFFFE1207EF41A8C7
:100C500022201E2DD3EF94B0EE94045024C3EF94C1
:100C6000BCEE9402401B8E148F15E52154F8FEE46F
:100C70002515F515EE3514F514F521851522120705
:100C80008322C0D085258C85278A201E0E3001073F
:100C9000A2A7B392A78006C2A78002D2A7D0D03263
:100CA000C0D085268D85288B000000300005A283EA
:100CB000B39283D0D0322021FDD2218F9922BB0163
:100CC0000CE58229F582E5833AF583E0225006E9B6
:100CD0002582F8E622BBFE06E92582F8E222E582BB
:100CE00029F582E5833AF583E49322EF8DF0A4A8F9
:100CF000F0CF8CF0A428CE8DF0A42EFE22BB0110E4
:100D0000E58229F582E5833AF583E0F5F0A3E02258
:100D10005009E92582F886F008E622BBFE0AE9259B
:100D200082F8E2F5F008E222E5832AF583E993F5FB
:100D3000F0A3E99322F5F0C582A4C582C5F0C5836E
:100D4000A42583F58322D083D082F8E493701274B3
:100D50000193700DA3A393F8740193F5828883E443
:100D6000737402936860EFA3A3A380DF78FFE4F6B7
:100D7000D8FD9000007F007E02E4F0A3DFFCDEFAE5
:100D8000754300758143020DC4020A4AE493A3F837
:100D9000E493A34003F68001F208DFF48029E49392
:100DA000A3F85407240CC8C333C4540F4420C88389
:100DB0004004F456800146F6DFE4800B010204088B
:100DC00010204080900E09E47E019360BCA3FF5484
:100DD0003F30E509541FFEE493A360010ECF54C0D9
:100DE00025E060A840B8E493A3FAE493A3F8E49361
:100DF000A3C8C582C8CAC583CAF0A3C8C582C8CA69
:100E0000C583CADFE9DEE780BE012B000140000296
:100E10003000000232000001420002340000022EC5
:100E20000000013B00013A000125000127000141BB
:100E300000013F00012600012800023600000238B0
:100E40000000C11E0229036F000500FF067F050098
:100E5000FF0C7F0500FF187F0500FF487F0500FF9E
:100E6000607F05002860A805002C60AC0306900395
:100E70000C900318900330900360900500B0507FF1
:100E80000500B2507F0500B4507F0500B6507F05C5
:100E900000B8507F0500BA507F0500BC507F0500A8
:100EA000BE507F0500B050000500B250000500B4F0
:100EB00050000500B650000500B850000500BA50BB
:100EC000000500BC50000500BE5000450070378092
:100ED00018BE50001CB8500020BC500024B6500072
:100EE00028BA50002CB4500030B2500034B050003A
:100EF00034B0507F30B6507F2CB2507F28B8507F2E
:100F000024B4507F20BA507F1CBC507F18BE507F45
:100F10004500701BC018BE507F1CBE500020BC5046
:100F20007F24BC500028BA507F2CBA500030B850F3
:100F30007F34B8500034B6507F30B650002CB450D7
:100F40007F28B4500024B2507F20B250001CB05013
:100F50007F18B0500003604C2500720B6103B05045
:100F60000003B2500003B4500003B6507F03B850E2
:100F70000003BA500003BC500003BE5000050CFF34
:100F80000C98050C990C988100250CA100FF0C7F92
:100F900000250CA100FF0C7F00250CA100FF0C7F99
:100FA00000250CA100FF0C7F00250CA000FF0C7F8A
:100FB00000250CA000FF0C7F00250CA000FF0C7F7B
:100FC00000250CA000FF0C7F00250CA200FF0C7F69
:100FD00000250CA200FF0C7F00250CA200FF0C7F57
:100FE00000250CA200FF0C7F00250CA100FF0C7F48
:100FF00000250CA100FF0C7F00250CA100FF0C7F39
:1010000000250CA100FF0C7F8100250CA100980C8D
:101010007F00250CA100980C7F00250CA100980CE6
:101020007F00250CA100980C7F00250CA000980CD7
:101030007F00250CA000980C7F00250CA000980CC8
:101040007F00250CA000980C7F00250CA200980CB6
:101050007F00250CA200980C7F00250CA200980CA4
:101060007F00250CA200980C7F00250CA100980C95
:101070007F00250CA100980C7F00250CA100980C86
:101080007F00250CA100980C7F070120010D2E7F09
:10109000070120010D5E7F03789005789078FA00B3
:1010A0000009787096B4787FFFFF4500712D6800C5
:1010B000B0102C00B0306000B2102C00B2306000D4
:1010C000B4102C00B4306000B6102C00B6306000B4
:1010D000B8102C00B8306000BA102C00BA30600094
:1010E000BC102C00BC306000BE102C00BE3060452F
:1010F00000704B5A00B0102C00B0306000B2102CC1
:1011000000B2306000B4102C00B4306000B6102C77
:1011100000B6306000B8102C00B8306000BA102C57
:1011200000BA306000BC102C00BC306000BE102C37
:1011300000BE306045007096B400B0104B00B03077
:101140002000B2104B00B2302000B4104B00B4307D
:101150002000B6104B00B6302000B8104B00B8305D
:101160002000BA104B00BA302000BC104B00BC303D
:101170002000BE104B00BE302045007096B400B079
:10118000500000B2500000B4500000B6500000B84B
:10119000500000BA500000BC500078BE500000B0B3
:1011A000507F00B2507F00B4507F00B6507F00B82F
:1011B000507F00BA507F00BC507F78BE507F0A1825
:1011C000181819181A181B181E0A1822181C181497
:1011D000181218110A1825182618251826182580FF
:1011E0008C98A4B0BBC6D0D9E2E9F0F5F9FCFEFFBB
:1011F000FEFCF9F5F0E9E2D9D0C6BBB0A4988C7F2B
:1012000073675B4F44392F261D160F0A0603010131
:101210000103060A0F161D262F39444F5B677380A2
:10122000868C92989EA4AAB0B6BBC1C6CBD0D5D9A5
:10123000DEE2E6E9ECF0F2F5F7F9FBFCFDFEFEFF7D
:10124000FEFEFDFCFBF9F7F5F2F0ECE9E6E2DED993
:10125000D5D0CBC6C1BBB6B0AAA49E98928C8680CE
:1012600079736D67615B554F49443E39342F2A26A7
:10127000211D1916130F0D0A0806040302010101AE
:10128000010102030406080A0D0F1316191D212679
:101290002A2F34393E44494F555B61676D7379FF9E
:1012A0001374FF138CFF1386FF137AFF1392000051
:1012B0000948171E242830893C2F472B518A5B563A
:1012C000649A6D54758F7D5884AF8B9F9228985483
:1012D0009E28A3A5A8D8ADBEB25DB6BABAD9BEBC89
:1012E000C267C5DEC923CC39CF23D1E3D47BD6EE88
:1012F000D93EDB6DDD7CDF6EE144E2FFE4A2E62D4A
:10130000E7A1E902EA4EEB87ECAFEDC7EECEEFC7FF
:10131000F0B2F190F261F326F3E1F491F537F5D4F0
:10132000F668F6F3F777F7F3F869F8D8F940F9A318
:10133000FA00FA58FAABFAFAFB44FB8AFBCCFC0A37
:10134000FC44FC7CFCB0FCE2FD10FD3CFD66FD8D28
:10135000FDB2FDD5FDF6FE15FE32FE4EFE68FE81A5
:10136000FE98FEAEFEC3FED7FEE9FEFBFF0BFF1BA1
:10137000FF29FF370002000E5DFF0004000F55FF3C
:101380000F55FF0F55FF0002000E67FF0002000E11
:1013900062FF0002000E5DFF00070011D40711C9B3
:1013A0000711BE0711C90711D40711BE07000700B6
:1013B00011D40111C90111BE0111C90111D40111CA
:1013C000BE0100070010AA0010970E10EF00109742
:1013D0000E11340010970E00030011790210A102C3
:04FFF00063001E008C
:08FFF800000000000000000001
:00000001FF
