:10000000020CDB1099028002C221320207D5EF30C8
:09001000E6032409FF53070F2247
:06001B00020C07AF992260
:1000230002006E758407758508E4F591F5A4F5B1B2
:10003300D280D281D282D2A5D2A7C2A4A202920B2D
:10004300C283D20EC20FC20CC20DF589538FEE4389
:100053008911F526F528F58CF58A85268D85288B5B
:1000630053B87FD2ABD2A922020003C0E0C0F0C0D4
:1000730083C08263A201C083C082C0D075D00075E3
:100083000800750900C218109802E11E85990AE557
:100093000A20E70241B3C394F0503A300509E50A58
:1000A30054F004F51A8014E50A540FFF6003BF01EE
:1000B30005850A1A8005751A00E11CE51A54F02417
:1000C30070600E24E0600A24F0600824406002E1BE
:1000D3001C803F8045E50A2410B410004002E11C57
:1000E3009000ED25E05002058373210DE11C2112E0
:1000F300211AE11CE11CE11CE11C2122E11C4159F4
:1001030041AA41A6E11CE11C41AE752B00E11C850F
:100113000A1A751B02E11C850A1A751B01E11C05ED
:1001230031E53170020530300318E52F452E700A92
:10013300120800A2A5B392A58008E52F152F70021F
:10014300152EE5374536700221CEC374FF9517FF90
:1001530074FF9516FEAD37EFA805088005CEC313CF
:10016300CE13D8F9F50C8E0BC3740B9537FFE495BA
:1001730036FEC3E50C9FE50B9E500CC3740B9537FD
:10018300F50CE49536F50B301F21E517250CFFE53B
:1001930016350BFED3EF94FFEE94FF5025E50C25A7
:1001A30017F517E50B3516F5168017D3E517950CDC
:1001B300E516950B400CE517950CF517E516950B11
:1001C300F516E516F526AF17EFF528E5394538702E
:1001D30002E11CC374FF9519FF74FF9518FEAD3936
:1001E300EFA805088005CEC313CE13D8F9F50C8EFE
:1001F3000BC3740B9539FFE49538FEC3E50C9FE5FB
:100203000B9E500CC3740B9539F50CE49538F50B24
:10021300302021E519250CFFE518350BFED3EF94AB
:10022300FFEE94FF5025E50C2519F519E50B35185C
:10023300F5188017D3E519950CE518950B400CE5D7
:1002430019950CF519E518950BF518E518F525AF73
:1002530019EFF527E11C753000753100752E007517
:100263002F00753200753300AB3CAA3DA93EAE3278
:10027300AF338F828E837403120CA4120C6CF5358A
:1002830085F034754200753B00753A00D20375382A
:1002930000753900C220753600753700C21F120879
:1002A30000E11CC203E11CD203E11C43A208E11CD0
:1002B300E51A120CB5043180043381044D90044FC8
:1002C300910638B0063AB102D7F00300F202F5F313
:1002D30000000719AF2BC3748094824002E119AF69
:1002E3002B052B74002FF582E43400F583E50AF027
:1002F300E119850A40753000753100E119E51BB439
:100303000209AF0A751E008F1FE119A2039219C2D9
:1003130003E50A600F75F080A4AEF0251FF51FEE0C
:10032300351EF51ED3E531951FE530951E5006E5C4
:100333001F451E7036753000753100752E00752F00
:1003430000753200753300AB3CAA3DA93EAE32AF17
:10035300338F828E837403120CA4120C6CF53585D3
:10036300F034754200753B00753A00E53145307055
:1003730011120800E52F2509F509E52E3508F508C2
:10038300D2183006028126E531651F7004E5306519
:100393001E700281260531E53170020530E52F1507
:1003A3002F7002152E14AE2E4E70D71208002006A1
:1003B300D1E531252FFFE530352EFEC3EF951FEE36
:1003C300951E50BEE52F2509F509E52E3508F508DC
:1003D300E52F2531F531E52E3530F530120800E5EE
:1003E3003AB403CA201804D2188030E5312509FF36
:1003F300E5303508FEC3EF951FEE951E5014E54218
:100403006010E5092531F531E5083530F530154241
:1004130080D9753B00753A0012080075080075090C
:1004230000808B300602E119A2199203E119D2224E
:10043300E51B64027002E119C2A5300502C1EA207E
:100443002204C201E119C200E119D222E51B6402B0
:100453006002A1E1F50BF50CC219850A1DE50A122C
:100463000CB504BD0004C30104FB02052B03055DA9
:100473000404CB0504D50604DF0704E90804F309E3
:1004830005BE6D04C96E04D36F04DD7004E7710407
:10049300F172052373055574051B75054D76051318
:1004A30077054578050B79053D7A05037B05357C92
:1004B30005BE7D05BE7E0000056EC2A5D21EA1BE8F
:1004C300D2A5C21EA1BED219750B00750C0AA1BE1E
:1004D300D219750B00750C09A1BED219750B0075E5
:1004E3000C08A1BED219750B00750C07A1BED21959
:1004F300750B00750C06A1BE750B00750C00A1BE33
:10050300052AE52A70020529052AE52A700205292C
:10051300052AE52A70020529052AE52A700205291C
:10052300052AE52A70020529052AE52A70350529D9
:100533008031E52A152A70021529E52A152A700249
:100543001529E52A152A70021529E52A152A7002AC
:100553001529E52A152A70021529E52A152A70029C
:10056300152914FFAE29120BD6805074F6250AF50F
:100573000A30051C25E02470F582E43412F583E487
:1005830093F518740193F519851816851917802B9F
:10059300E50A25E02470202212F582E43412F58363
:1005A300E493F518740193F5198010F582E434127D
:1005B300F583E493F516740193F517E50C450B7079
:1005C30002E11920220C850B38850C39A2199220DF
:1005D300E119850B36850C37A219921FE119E51D28
:1005E300C3940A5002E119E51D946D4002E119E537
:1005F3000A6037D2A5300515D200D201E518F525DA
:10060300AF19EFF527852526852728E11920220D27
:10061300D201E518F525AF19EFF527E119D200E569
:1006230016F526AF17EFF528E119202204C201E1E0
:1006330019C200E119D222E51BB40205850A1CE1A7
:1006430019E51C120CB5066810069B3006C350064C
:10065300D67806DC7A06EA7B06F07C06F47D06F89B
:100663007E00000719E52A2444FFE52934FDFEEF47
:100673007802CEC313CE13D8F9650A7001EE700267
:10068300E119532A03752900E50A75F004A424BC73
:10069300FFE5F03402FE8016E50AC4135407FF7E1B
:1006A30000E52A54036F7001E4606B532AFCEF25C5
:1006B3002AF52AEE3529F529AF2AFE120BD68056E4
:1006C300E50AC394404006D2A5C21E8049C2A5D202
:1006D3001E8043C200C201803DE50A547F6004D2FC
:1006E300048033C204802FC201C2008029C2058066
:1006F30025D2058021C203E50AC394004016D28E99
:10070300752610E50A94014007D28C7525108006E2
:10071300C28C8002C28E631B03C222D0D0D082D08F
:100723008363A201D082D083D0F0D0E032AE07EF52
:100733007804A2E713D8FBFF53070FC3EF64809439
:100743008A400474072FFF74302FFF1207F3AF069C
:1007530053070FC3EF6480948A400474072FFF7418
:10076300302FFF0207F37F017E00A201921DC20119
:10077300C2A7C2A3C2A4D2A4EF4E6019E5215EFCB6
:10078300E5225F4C24FF92A2D2A3C2A3EF25E0FF90
:10079300EE33FE80E3C2A4A21D9201225387BF75EC
:1007A300985053877F75BAA0E4F5BD75BE30F5BF89
:1007B30075BD035391FE4392014391025392FDC2CF
:1007C3002153B8EF53B7EFD2AC53F8BF53F7BFD2AF
:1007D300EE22C0D085258C85278A201E0E30010786
:1007E300A2A7B392A78006C2A78002D2A7D0D03215
:0807F3002021FDD2218F992283
:10080000E4F50FF510C21AC21BE53AC3953B407CD4
:10081000753A01AF421542EF70720533E53370024D
:100820000532AE32B53527EEB53423C203E4F530D8
:10083000F531C2A5C200C201E53524FFF533E53428
:1008400034FFF532E4F542853B3AD206803EAB3CBC
:10085000AA3DA93EAE32AF338F828E837403120C51
:10086000A4120C6C85F02CF52DAE32AF337C007DDC
:1008700003120C5AE92FF9EA3EFA900002120C2DED
:10088000F542852D82852C83E493F53BAF3A053AFA
:10089000E52D2FF582E4352CF583E493752E00F5D4
:1008A0002FAF3A053AE52D2FF582E4352CF583E498
:1008B00093F50D200302414330E702D21B530D7F15
:1008C000E50D120CB5092000092601095E02098D0B
:1008D0000309BF04092E05093806094207094C0817
:1008E0000956090A1C6D092C6E09366F09407009FA
:1008F0004A7109547209857309B774097D7509AF86
:100900007609757709A778096D79099F7A09657B5A
:1009100009977C0A1C7D0A1C7E09D07F000009DB38
:10092000C2A5D21E411CD2A5C21E411CD21A750FEF
:100930000075100A411CD21A750F00751009411C70
:10094000D21A750F00751008411CD21A750F007568
:100950001007411CD21A750F00751006411CE4F5F2
:100960000FF510411C052AE52A70020529052AE524
:100970002A70020529052AE52A70020529052AE5BB
:100980002A70020529052AE52A70020529052AE5AB
:100990002A703505298031E52A152A70021529E5C6
:1009A0002A152A70021529E52A152A70021529E54B
:1009B0002A152A70021529E52A152A70021529E53B
:1009C0002A152A7002152914FFAE29120BD6804C65
:1009D000301B04C2018045C200804174F6250DF52C
:1009E0000D301B1CD20125E02470F582E43412F591
:1009F00083E493FC740193FDECF525EDF527801C51
:100A0000D200E50D25E02470F582E43412F583E48C
:100A100093FC740193FDECF526EDF528E510450FE8
:100A20006019301B0C850F38851039A21A9220806E
:100A30000A850F36851037A21A921FE52F452E70B2
:100A400002010922E4F513120026C2A7AF2AAE293B
:100A5000120BD612079FAF40EF75F003A4245BF58D
:100A600082E43412F583E493FB740193FA740293E5
:100A70008B3C8A3DF53EF9AE32AF338F828E837464
:100A800003120CA4120C6CF53585F034D2AFD204ED
:100A90007FE87EFD120C237FE87EFD120C23D28EB0
:100AA000D28CAF40EF75F003A4245BF582E43412DE
:100AB000F583E493FB740193FA740293F9EB8A8350
:100AC0008982AB3CAA3DA93E653C700AE53E658241
:100AD0007004E53D6583604AAF40EF75F003A424E0
:100AE0005BF582E43412F583E493FB740193FA74AA
:100AF00002938B3C8A3DF53EE4F530F531F532F555
:100B000033F52EF52FAB3CAA3DA93EAE32AF338F65
:100B1000828E837403120CA4120C6CF53585F034AC
:100B20008080208019A2A7B392A730A706D21EC248
:100B3000A5800BC21ED2A5AF2AAE29120BD6120C6D
:100B40001F20A50241A220810D120C1D052AE52AB5
:100B500070120529800E208217120C1DE52A152A15
:100B600070021529AF2AAE29120BD6D2A5120C1F7E
:100B7000C3E52A94BCE52994025026752902752AFA
:100B8000BC120C1DD2A5120C1F120C1DD2A5120CEA
:100B90001F120C1DD2A5120C1F120C1DD2A5120C77
:100BA0001FD3E52A94B0E5299404500241A2752987
:100BB00004752AB0120C1DD2A5120C1F120C1DD2E6
:100BC000A5120C1F120C1DD2A5120C1F120C1DD247
:100BD000A5120C1F41A2201E2DD3EF94B0EE940459
:100BE0005024C3EF94BCEE9402401B8E148F15E585
:100BF0002154F8FEE42515F515EE3514F514F5210C
:100C000085152212076922C0D085268D85288B0084
:100C10000000300005A283B39283D0D032C2A57405
:100C2000FFFFFEEF1F70011E144E70F722BB010C78
:100C3000E58229F582E5833AF583E0225006E9252D
:100C400082F8E622BBFE06E92582F8E222E5822947
:100C5000F582E5833AF583E49322EF8DF0A4A8F0C2
:100C6000CF8CF0A428CE8DF0A42EFE22BB0110E57F
:100C70008229F582E5833AF583E0F5F0A3E022507E
:100C800009E92582F886F008E622BBFE0AE92582FA
:100C9000F8E2F5F008E222E5832AF583E993F5F01E
:100CA000A3E99322F5F0C582A4C582C5F0C583A44B
:100CB0002583F58322D083D082F8E49370127401E7
:100CC00093700DA3A393F8740193F5828883E47362
:100CD0007402936860EFA3A3A380DF78FFE4F6D8E3
:100CE000FD9000007F007E02E4F0A3DFFCDEFA75D9
:100CF0004300758143020D33020A44E493A3F8E4F0
:100D000093A34003F68001F208DFF48029E493A363
:100D1000F85407240CC8C333C4540F4420C883407C
:100D200004F456800146F6DFE4800B01020408104B
:100D3000204080900D78E47E019360BCA3FF543F77
:100D400030E509541FFEE493A360010ECF54C02583
:100D5000E060A840B8E493A3FAE493A3F8E493A373
:100D6000C8C582C8CAC583CAF0A3C8C582C8CAC5D7
:100D700083CADFE9DEE780BE012B000140000230BC
:100D800000000232000001420002340000022E0086
:100D900000013B00013A000125000127000141004C
:100DA000013F000126000128000236000002380041
:100DB00000C11E0229036F000500FF067F0500FF2A
:100DC0000C7F0500FF187F0500FF487F0500FF60CE
:100DD0007F05001D609D05001E609E030690030CAC
:100DE000900318900330900360900500B0507F0589
:100DF00000B2507F0500B4507F0500B6507F05005B
:100E0000B8507F0500BA507F0500BC507F0500BE7A
:100E1000507F0500B050000500B250000500B450EE
:100E2000000500B650000500B850000500BA50009B
:100E30000500BC50000500BE5000450070378030F2
:100E4000BE500038B8500040BC500048B65000506A
:100E5000BA500058B4500060B2500068B0500068FA
:100E6000B0507F60B6507F58B2507F50B8507F4826
:100E7000B4507F40BA507F38BC507F30BE507F4561
:100E800000701BC030BE507F38BE500040BC507F49
:100E900048BC500050BA507F58BA500060B8507FDC
:100EA00068B8500068B6507F60B6500058B4507FA4
:100EB00050B4500048B2507F40B2500038B0507F1C
:100EC00030B050000360302500720B6103B0500059
:100ED00003B2500003B4500003B6507F03B8500073
:100EE00003BA500003BC500003BE5000050CFF0CB9
:100EF00098050C990C988100250CA100FF0C7F002F
:100F0000250CA100FF0C7F00250CA100FF0C7F0029
:100F1000250CA100FF0C7F00250CA000FF0C7F001A
:100F2000250CA000FF0C7F00250CA000FF0C7F000B
:100F3000250CA000FF0C7F00250CA200FF0C7F00F9
:100F4000250CA200FF0C7F00250CA200FF0C7F00E7
:100F5000250CA200FF0C7F00250CA100FF0C7F00D8
:100F6000250CA100FF0C7F00250CA100FF0C7F00C9
:100F7000250CA100FF0C7F8100250CA100980C7F9F
:100F800000250CA100980C7F00250CA100980C7F77
:100F900000250CA100980C7F00250CA000980C7F68
:100FA00000250CA000980C7F00250CA000980C7F59
:100FB00000250CA000980C7F00250CA200980C7F47
:100FC00000250CA200980C7F00250CA200980C7F35
:100FD00000250CA200980C7F00250CA100980C7F26
:100FE00000250CA100980C7F00250CA100980C7F17
:100FF00000250CA100980C7F070120010D2E7F0712
:101000000120010D5E7F03789005789078FA00004A
:1010100009787096B4787FFFFF4500712D6800B0A5
:10102000102C00B0306000B2102C00B2306000B460
:10103000102C00B4306000B6102C00B6306000B840
:10104000102C00B8306000BA102C00BA306000BC20
:10105000102C00BC306000BE102C00BE306045007B
:10106000704B5A00B0102C00B0306000B2102C0051
:10107000B2306000B4102C00B4306000B6102C0008
:10108000B6306000B8102C00B8306000BA102C00E8
:10109000BA306000BC102C00BC306000BE102C00C8
:1010A000BE306045007096B400B0104B00B03020E8
:1010B00000B2104B00B2302000B4104B00B430200E
:1010C00000B6104B00B6302000B8104B00B83020EE
:1010D00000BA104B00BA302000BC104B00BC3020CE
:1010E00000BE104B00BE302045007096B400B050DA
:1010F0000000B2500000B4500000B6500000B850DC
:101100000000BA500000BC500078BE500000B05043
:101110007F00B2507F00B4507F00B6507F00B850BF
:101120007F00BA507F00BC507F78BE507F0A000518
:1011300000213001300018020A0006002130013081
:101140000018020A000700213001300018020A00CE
:101150000800213001300018020A00090021300186
:10116000300018020A006E00213001300018020A17
:10117000006F00213001300018020A007000213099
:1011800001300018020A00710021300130001802FD
:101190000A00720021300130001802808C98A4B03F
:1011A000BBC6D0D9E2E9F0F5F9FCFEFFFEFCF9F58B
:1011B000F0E9E2D9D0C6BBB0A4988C7F73675B4FCF
:1011C00044392F261D160F0A060301010103060AE2
:1011D0000F161D262F39444F5B677380868C9298BB
:1011E0009EA4AAB0B6BBC1C6CBD0D5D9DEE2E6E993
:1011F000ECF0F2F5F7F9FBFCFDFEFEFFFEFEFDFC58
:10120000FBF9F7F5F2F0ECE9E6E2DED9D5D0CBC692
:10121000C1BBB6B0AAA49E98928C868079736D6784
:10122000615B554F49443E39342F2A26211D19163A
:10123000130F0D0A08060403020101010101020354
:101240000406080A0D0F1316191D21262A2F3439FA
:101250003E44494F555B61676D7379FF1336FF1349
:101260005AFF136FFF134EFF1348FF133CFF135435
:1012700000000948171E242830893C2F472B518A2B
:101280005B56649A6D54758F7D5884AF8B9F9228FE
:1012900098549E28A3A5A8D8ADBEB25DB6BABAD957
:1012A000BEBCC267C5DEC923CC39CF23D1E3D47B12
:1012B000D6EED93EDB6DDD7CDF6EE144E2FFE4A2D9
:1012C000E62DE7A1E902EA4EEB87ECAFEDC7EECEE3
:1012D000EFC7F0B2F190F261F326F3E1F491F53744
:1012E000F5D4F668F6F3F777F7F3F869F8D8F9402C
:1012F000F9A3FA00FA58FAABFAFAFB44FB8AFBCCE2
:10130000FC0AFC44FC7CFCB0FCE2FD10FD3CFD66EC
:10131000FD8DFDB2FDD5FDF6FE15FE32FE4EFE68DA
:10132000FE81FE98FEAEFEC3FED7FEE9FEFBFF0B7C
:10133000FF1BFF29FF370002000DCCFF0004000E49
:10134000C4FF0EC4FF0EC4FF0002000DD6FF000252
:10135000000DD1FF0002000EECFF00070011640732
:10136000116F07117A0711850711900711640700A3
:101370000700112D07113807114307114E071159A6
:1013800007112D0700070010190010060E105E004F
:1013900010060E10A30010060E00030010E8021045
:0213A000100239
:04FFF00063001E008C
:08FFF800000000000000000001
:00000001FF
